{
  "address": "0xEfBB761495D06edb8247d04ACED1cd731E8b5C26",
  "abi": [
    {
      "anonymous": false,
      "inputs": [
        {
          "indexed": false,
          "internalType": "address",
          "name": "previousAdmin",
          "type": "address"
        },
        {
          "indexed": false,
          "internalType": "address",
          "name": "newAdmin",
          "type": "address"
        }
      ],
      "name": "AdminChanged",
      "type": "event"
    },
    {
      "anonymous": false,
      "inputs": [
        {
          "indexed": true,
          "internalType": "address",
          "name": "owner",
          "type": "address"
        },
        {
          "indexed": false,
          "internalType": "address",
          "name": "airdrop",
          "type": "address"
        },
        {
          "indexed": false,
          "internalType": "string",
          "name": "name",
          "type": "string"
        },
        {
          "indexed": false,
          "internalType": "string",
          "name": "description",
          "type": "string"
        },
        {
          "indexed": true,
          "internalType": "address",
          "name": "token",
          "type": "address"
        },
        {
          "indexed": false,
          "internalType": "address",
          "name": "identifier",
          "type": "address"
        }
      ],
      "name": "AirdropCreated",
      "type": "event"
    },
    {
      "anonymous": false,
      "inputs": [
        {
          "indexed": true,
          "internalType": "address",
          "name": "beacon",
          "type": "address"
        }
      ],
      "name": "BeaconUpgraded",
      "type": "event"
    },
    {
      "anonymous": false,
      "inputs": [
        {
          "indexed": false,
          "internalType": "string",
          "name": "methodId",
          "type": "string"
        },
        {
          "indexed": true,
          "internalType": "address",
          "name": "identifier",
          "type": "address"
        }
      ],
      "name": "IdentifierChanged",
      "type": "event"
    },
    {
      "anonymous": false,
      "inputs": [
        {
          "indexed": false,
          "internalType": "uint8",
          "name": "version",
          "type": "uint8"
        }
      ],
      "name": "Initialized",
      "type": "event"
    },
    {
      "anonymous": false,
      "inputs": [
        {
          "indexed": true,
          "internalType": "address",
          "name": "previousOwner",
          "type": "address"
        },
        {
          "indexed": true,
          "internalType": "address",
          "name": "newOwner",
          "type": "address"
        }
      ],
      "name": "OwnershipTransferred",
      "type": "event"
    },
    {
      "anonymous": false,
      "inputs": [
        {
          "indexed": true,
          "internalType": "address",
          "name": "implementation",
          "type": "address"
        }
      ],
      "name": "Upgraded",
      "type": "event"
    },
    {
      "inputs": [
        {
          "internalType": "uint256",
          "name": "",
          "type": "uint256"
        }
      ],
      "name": "airdrops",
      "outputs": [
        {
          "internalType": "address",
          "name": "",
          "type": "address"
        }
      ],
      "stateMutability": "view",
      "type": "function"
    },
    {
      "inputs": [],
      "name": "airdropsLength",
      "outputs": [
        {
          "internalType": "uint256",
          "name": "",
          "type": "uint256"
        }
      ],
      "stateMutability": "view",
      "type": "function"
    },
    {
      "inputs": [
        {
          "internalType": "address",
          "name": "account",
          "type": "address"
        },
        {
          "internalType": "string",
          "name": "methodId",
          "type": "string"
        }
      ],
      "name": "checkIdentity",
      "outputs": [
        {
          "internalType": "bool",
          "name": "",
          "type": "bool"
        }
      ],
      "stateMutability": "view",
      "type": "function"
    },
    {
      "inputs": [
        {
          "internalType": "string",
          "name": "name",
          "type": "string"
        },
        {
          "internalType": "string",
          "name": "description",
          "type": "string"
        },
        {
          "internalType": "address",
          "name": "token",
          "type": "address"
        },
        {
          "internalType": "address",
          "name": "identifier",
          "type": "address"
        }
      ],
      "name": "createAirdrop",
      "outputs": [
        {
          "internalType": "address",
          "name": "_airdrop",
          "type": "address"
        }
      ],
      "stateMutability": "nonpayable",
      "type": "function"
    },
    {
      "inputs": [
        {
          "internalType": "string",
          "name": "",
          "type": "string"
        }
      ],
      "name": "getAirdrop",
      "outputs": [
        {
          "internalType": "address",
          "name": "",
          "type": "address"
        }
      ],
      "stateMutability": "view",
      "type": "function"
    },
    {
      "inputs": [
        {
          "internalType": "string",
          "name": "",
          "type": "string"
        }
      ],
      "name": "getIdentifier",
      "outputs": [
        {
          "internalType": "address",
          "name": "",
          "type": "address"
        }
      ],
      "stateMutability": "view",
      "type": "function"
    },
    {
      "inputs": [],
      "name": "initialize",
      "outputs": [],
      "stateMutability": "nonpayable",
      "type": "function"
    },
    {
      "inputs": [],
      "name": "owner",
      "outputs": [
        {
          "internalType": "address",
          "name": "",
          "type": "address"
        }
      ],
      "stateMutability": "view",
      "type": "function"
    },
    {
      "inputs": [],
      "name": "proxiableUUID",
      "outputs": [
        {
          "internalType": "bytes32",
          "name": "",
          "type": "bytes32"
        }
      ],
      "stateMutability": "view",
      "type": "function"
    },
    {
      "inputs": [],
      "name": "renounceOwnership",
      "outputs": [],
      "stateMutability": "nonpayable",
      "type": "function"
    },
    {
      "inputs": [
        {
          "internalType": "string",
          "name": "methodId",
          "type": "string"
        },
        {
          "internalType": "address",
          "name": "identifier",
          "type": "address"
        }
      ],
      "name": "setIdentifier",
      "outputs": [],
      "stateMutability": "nonpayable",
      "type": "function"
    },
    {
      "inputs": [
        {
          "internalType": "address",
          "name": "_vip",
          "type": "address"
        }
      ],
      "name": "setVip",
      "outputs": [],
      "stateMutability": "nonpayable",
      "type": "function"
    },
    {
      "inputs": [
        {
          "internalType": "address",
          "name": "newOwner",
          "type": "address"
        }
      ],
      "name": "transferOwnership",
      "outputs": [],
      "stateMutability": "nonpayable",
      "type": "function"
    },
    {
      "inputs": [
        {
          "internalType": "address",
          "name": "newImplementation",
          "type": "address"
        }
      ],
      "name": "upgradeTo",
      "outputs": [],
      "stateMutability": "nonpayable",
      "type": "function"
    },
    {
      "inputs": [
        {
          "internalType": "address",
          "name": "newImplementation",
          "type": "address"
        },
        {
          "internalType": "bytes",
          "name": "data",
          "type": "bytes"
        }
      ],
      "name": "upgradeToAndCall",
      "outputs": [],
      "stateMutability": "payable",
      "type": "function"
    },
    {
      "inputs": [],
      "name": "vip",
      "outputs": [
        {
          "internalType": "address",
          "name": "",
          "type": "address"
        }
      ],
      "stateMutability": "view",
      "type": "function"
    }
  ],
  "numDeployments": 1,
  "solcInputHash": "2875952293fc18e799d56a583ebbd071",
  "bytecode": "0x60a06040523060805234801561001457600080fd5b50608051612c1961004c6000396000818161037d015281816104180152818161051f015281816105b501526106b00152612c196000f3fe6080604052600436106100f35760003560e01c8063853bab711161008a578063cfc257d411610059578063cfc257d41461028b578063e0d021a6146102ab578063f2fde38b146102ec578063fffd02f31461030c57600080fd5b8063853bab71146102185780638a85397e146102385780638da5cb5b14610258578063b32f33281461027657600080fd5b806352d1902d116100c657806352d1902d146101ab57806360db5082146101ce578063715018a6146101ee5780638129fc1c1461020357600080fd5b80630b6c9082146100f857806315a857cc1461011a5780633659cfe6146101785780634f1ef28614610198575b600080fd5b34801561010457600080fd5b50610118610113366004611490565b61033c565b005b34801561012657600080fd5b5061015b610135366004611570565b805160208183018101805160cb825292820191909301209152546001600160a01b031681565b6040516001600160a01b0390911681526020015b60405180910390f35b34801561018457600080fd5b50610118610193366004611490565b610373565b6101186101a63660046115ad565b610515565b3480156101b757600080fd5b506101c06106a3565b60405190815260200161016f565b3480156101da57600080fd5b5061015b6101e936600461160f565b610768565b3480156101fa57600080fd5b50610118610792565b34801561020f57600080fd5b506101186107a6565b34801561022457600080fd5b5060cc5461015b906001600160a01b031681565b34801561024457600080fd5b5061015b610253366004611628565b61091d565b34801561026457600080fd5b506033546001600160a01b031661015b565b34801561028257600080fd5b5060c9546101c0565b34801561029757600080fd5b506101186102a63660046116ad565b610c61565b3480156102b757600080fd5b5061015b6102c6366004611570565b805160208183018101805160ca825292820191909301209152546001600160a01b031681565b3480156102f857600080fd5b50610118610307366004611490565b610cf4565b34801561031857600080fd5b5061032c61032736600461172e565b610d81565b604051901515815260200161016f565b610344610e6b565b60cc805473ffffffffffffffffffffffffffffffffffffffff19166001600160a01b0392909216919091179055565b6001600160a01b037f00000000000000000000000000000000000000000000000000000000000000001630036104165760405162461bcd60e51b815260206004820152602c60248201527f46756e6374696f6e206d7573742062652063616c6c6564207468726f7567682060448201527f64656c656761746563616c6c000000000000000000000000000000000000000060648201526084015b60405180910390fd5b7f00000000000000000000000000000000000000000000000000000000000000006001600160a01b03166104717f360894a13ba1a3210667c828492db98dca3e2076cc3735a920a3ca505d382bbc546001600160a01b031690565b6001600160a01b0316146104ed5760405162461bcd60e51b815260206004820152602c60248201527f46756e6374696f6e206d7573742062652063616c6c6564207468726f7567682060448201527f6163746976652070726f78790000000000000000000000000000000000000000606482015260840161040d565b6104f681610ec5565b6040805160008082526020820190925261051291839190610ecd565b50565b6001600160a01b037f00000000000000000000000000000000000000000000000000000000000000001630036105b35760405162461bcd60e51b815260206004820152602c60248201527f46756e6374696f6e206d7573742062652063616c6c6564207468726f7567682060448201527f64656c656761746563616c6c0000000000000000000000000000000000000000606482015260840161040d565b7f00000000000000000000000000000000000000000000000000000000000000006001600160a01b031661060e7f360894a13ba1a3210667c828492db98dca3e2076cc3735a920a3ca505d382bbc546001600160a01b031690565b6001600160a01b03161461068a5760405162461bcd60e51b815260206004820152602c60248201527f46756e6374696f6e206d7573742062652063616c6c6564207468726f7567682060448201527f6163746976652070726f78790000000000000000000000000000000000000000606482015260840161040d565b61069382610ec5565b61069f82826001610ecd565b5050565b6000306001600160a01b037f000000000000000000000000000000000000000000000000000000000000000016146107435760405162461bcd60e51b815260206004820152603860248201527f555550535570677261646561626c653a206d757374206e6f742062652063616c60448201527f6c6564207468726f7567682064656c656761746563616c6c0000000000000000606482015260840161040d565b507f360894a13ba1a3210667c828492db98dca3e2076cc3735a920a3ca505d382bbc90565b60c9818154811061077857600080fd5b6000918252602090912001546001600160a01b0316905081565b61079a610e6b565b6107a46000611072565b565b600054610100900460ff16158080156107c65750600054600160ff909116105b806107e05750303b1580156107e0575060005460ff166001145b6108525760405162461bcd60e51b815260206004820152602e60248201527f496e697469616c697a61626c653a20636f6e747261637420697320616c72656160448201527f647920696e697469616c697a6564000000000000000000000000000000000000606482015260840161040d565b600080547fffffffffffffffffffffffffffffffffffffffffffffffffffffffffffffff0016600117905580156108b057600080547fffffffffffffffffffffffffffffffffffffffffffffffffffffffffffff00ff166101001790555b6108b86110d1565b801561051257600080547fffffffffffffffffffffffffffffffffffffffffffffffffffffffffffff00ff169055604051600181527f7f26b83ff96e1f2b6a682f133852f6798a09c465da95921460cefb38474024989060200160405180910390a150565b6000806001600160a01b031660ca86604051610939919061179e565b908152604051908190036020019020546001600160a01b0316146109c55760405162461bcd60e51b815260206004820152602e60248201527f5344466163746f72793a20546869732061697264726f70206e616d652069732060448201527f616c72656164792074616b656e2e000000000000000000000000000000000000606482015260840161040d565b610a04336040518060400160405280601681526020017f666163746f72792e6372656174652e61697264726f7000000000000000000000815250610d81565b506000604051610a1390611467565b604051809103906000f080158015610a2f573d6000803e3d6000fd5b506040517f8f15b4140000000000000000000000000000000000000000000000000000000081529091506001600160a01b03821690638f15b41490610a7e9089908990899033906004016117e6565b600060405180830381600087803b158015610a9857600080fd5b505af1158015610aac573d6000803e3d6000fd5b505060c980546001810182556000919091527f66be4f155c5ef2ebd3772b228f2f00681e4ed5826cdb3b1943cc11ad15ad1d2801805473ffffffffffffffffffffffffffffffffffffffff19166001600160a01b03851617905550506040519091508190819060ca90610b2090899061179e565b90815260405190819003602001902080546001600160a01b0392831673ffffffffffffffffffffffffffffffffffffffff19909116179055831615610c0757600086604051602001610b729190611830565b60405160208183030381529060405290508360cb82604051610b94919061179e565b90815260405190819003602001812080546001600160a01b0393841673ffffffffffffffffffffffffffffffffffffffff19909116179055908516907f4e3cb370f2f2909ea2df8bdd0861ab02eaa3370354a5dc93b777904df916b81b90610bfd908490611875565b60405180910390a2505b836001600160a01b0316336001600160a01b03167f705206408b7c1ee8652aed930aad2720e99dbedc7324c8d2a88e45be80cce00b84898988604051610c509493929190611888565b60405180910390a350949350505050565b610c69610e6b565b8060cb8484604051610c7c9291906118d2565b90815260405190819003602001812080546001600160a01b0393841673ffffffffffffffffffffffffffffffffffffffff19909116179055908216907f4e3cb370f2f2909ea2df8bdd0861ab02eaa3370354a5dc93b777904df916b81b90610ce790869086906118e2565b60405180910390a2505050565b610cfc610e6b565b6001600160a01b038116610d785760405162461bcd60e51b815260206004820152602660248201527f4f776e61626c653a206e6577206f776e657220697320746865207a65726f206160448201527f6464726573730000000000000000000000000000000000000000000000000000606482015260840161040d565b61051281611072565b6000806001600160a01b031660cb83604051610d9d919061179e565b908152604051908190036020019020546001600160a01b031603610dc357506001610e65565b60cb82604051610dd3919061179e565b908152604051908190036020018120547f4d207d9a0000000000000000000000000000000000000000000000000000000082526001600160a01b0385811660048401521690634d207d9a90602401602060405180830381865afa158015610e3e573d6000803e3d6000fd5b505050506040513d601f19601f82011682018060405250810190610e629190611911565b90505b92915050565b6033546001600160a01b031633146107a45760405162461bcd60e51b815260206004820181905260248201527f4f776e61626c653a2063616c6c6572206973206e6f7420746865206f776e6572604482015260640161040d565b610512610e6b565b7f4910fdfa16fed3260ed0e7147f7cc6da11a60208b5b9406d12a635614ffd91435460ff1615610f0557610f0083611156565b505050565b826001600160a01b03166352d1902d6040518163ffffffff1660e01b8152600401602060405180830381865afa925050508015610f5f575060408051601f3d908101601f19168201909252610f5c91810190611933565b60015b610fd15760405162461bcd60e51b815260206004820152602e60248201527f45524331393637557067726164653a206e657720696d706c656d656e7461746960448201527f6f6e206973206e6f742055555053000000000000000000000000000000000000606482015260840161040d565b7f360894a13ba1a3210667c828492db98dca3e2076cc3735a920a3ca505d382bbc81146110665760405162461bcd60e51b815260206004820152602960248201527f45524331393637557067726164653a20756e737570706f727465642070726f7860448201527f6961626c65555549440000000000000000000000000000000000000000000000606482015260840161040d565b50610f00838383611221565b603380546001600160a01b0383811673ffffffffffffffffffffffffffffffffffffffff19831681179093556040519116919082907f8be0079c531659141344cd1fd0a4f28419497f9722a3daafe3b4186f6b6457e090600090a35050565b600054610100900460ff1661114e5760405162461bcd60e51b815260206004820152602b60248201527f496e697469616c697a61626c653a20636f6e7472616374206973206e6f74206960448201527f6e697469616c697a696e67000000000000000000000000000000000000000000606482015260840161040d565b6107a461124c565b6001600160a01b0381163b6111d35760405162461bcd60e51b815260206004820152602d60248201527f455243313936373a206e657720696d706c656d656e746174696f6e206973206e60448201527f6f74206120636f6e747261637400000000000000000000000000000000000000606482015260840161040d565b7f360894a13ba1a3210667c828492db98dca3e2076cc3735a920a3ca505d382bbc805473ffffffffffffffffffffffffffffffffffffffff19166001600160a01b0392909216919091179055565b61122a836112d2565b6000825111806112375750805b15610f00576112468383611312565b50505050565b600054610100900460ff166112c95760405162461bcd60e51b815260206004820152602b60248201527f496e697469616c697a61626c653a20636f6e7472616374206973206e6f74206960448201527f6e697469616c697a696e67000000000000000000000000000000000000000000606482015260840161040d565b6107a433611072565b6112db81611156565b6040516001600160a01b038216907fbc7cd75a20ee27fd9adebab32041f755214dbc6bffa90cc0225b39da2e5c2d3b90600090a250565b60606001600160a01b0383163b6113915760405162461bcd60e51b815260206004820152602660248201527f416464726573733a2064656c65676174652063616c6c20746f206e6f6e2d636f60448201527f6e74726163740000000000000000000000000000000000000000000000000000606482015260840161040d565b600080846001600160a01b0316846040516113ac919061179e565b600060405180830381855af49150503d80600081146113e7576040519150601f19603f3d011682016040523d82523d6000602084013e6113ec565b606091505b50915091506114148282604051806060016040528060278152602001612bbd6027913961141d565b95945050505050565b6060831561142c575081611436565b611436838361143d565b9392505050565b81511561144d5781518083602001fd5b8060405162461bcd60e51b815260040161040d9190611875565b6112708061194d83390190565b80356001600160a01b038116811461148b57600080fd5b919050565b6000602082840312156114a257600080fd5b610e6282611474565b7f4e487b7100000000000000000000000000000000000000000000000000000000600052604160045260246000fd5b600067ffffffffffffffff808411156114f5576114f56114ab565b604051601f8501601f19908116603f0116810190828211818310171561151d5761151d6114ab565b8160405280935085815286868601111561153657600080fd5b858560208301376000602087830101525050509392505050565b600082601f83011261156157600080fd5b610e62838335602085016114da565b60006020828403121561158257600080fd5b813567ffffffffffffffff81111561159957600080fd5b6115a584828501611550565b949350505050565b600080604083850312156115c057600080fd5b6115c983611474565b9150602083013567ffffffffffffffff8111156115e557600080fd5b8301601f810185136115f657600080fd5b611605858235602084016114da565b9150509250929050565b60006020828403121561162157600080fd5b5035919050565b6000806000806080858703121561163e57600080fd5b843567ffffffffffffffff8082111561165657600080fd5b61166288838901611550565b9550602087013591508082111561167857600080fd5b5061168587828801611550565b93505061169460408601611474565b91506116a260608601611474565b905092959194509250565b6000806000604084860312156116c257600080fd5b833567ffffffffffffffff808211156116da57600080fd5b818601915086601f8301126116ee57600080fd5b8135818111156116fd57600080fd5b87602082850101111561170f57600080fd5b6020928301955093506117259186019050611474565b90509250925092565b6000806040838503121561174157600080fd5b61174a83611474565b9150602083013567ffffffffffffffff81111561176657600080fd5b61160585828601611550565b60005b8381101561178d578181015183820152602001611775565b838111156112465750506000910152565b600082516117b0818460208701611772565b9190910192915050565b600081518084526117d2816020860160208601611772565b601f01601f19169290920160200192915050565b6080815260006117f960808301876117ba565b828103602084015261180b81876117ba565b9150506001600160a01b03808516604084015280841660608401525095945050505050565b7f61697264726f702e636c61696d2e00000000000000000000000000000000000081526000825161186881600e850160208701611772565b91909101600e0192915050565b602081526000610e6260208301846117ba565b60006001600160a01b038087168352608060208401526118ab60808401876117ba565b83810360408501526118bd81876117ba565b92505080841660608401525095945050505050565b8183823760009101908152919050565b60208152816020820152818360408301376000818301604090810191909152601f909201601f19160101919050565b60006020828403121561192357600080fd5b8151801515811461143657600080fd5b60006020828403121561194557600080fd5b505191905056fe608060405234801561001057600080fd5b50600680546001600160a01b0319163317905561123e806100326000396000f3fe608060405234801561001057600080fd5b50600436106100d45760003560e01c80638f15b41411610081578063e2bbb1581161005b578063e2bbb1581461018d578063f3fef3a3146101a0578063fc0c546a146101b357600080fd5b80638f15b4141461015e578063b69ef8a814610171578063c45a01551461017a57600080fd5b80637284e416116100b25780637284e41614610114578063830953ab1461011c5780638da5cb5b1461013357600080fd5b806306fdde03146100d9578063480bc474146100f75780634e71d92d1461010c575b600080fd5b6100e16101c6565b6040516100ee9190610dfa565b60405180910390f35b61010a610105366004610e29565b610254565b005b61010a6103ef565b6100e1610618565b61012560055481565b6040519081526020016100ee565b600354610146906001600160a01b031681565b6040516001600160a01b0390911681526020016100ee565b61010a61016c366004610f02565b610625565b61012560045481565b600654610146906001600160a01b031681565b61010a61019b366004610f8b565b6106ef565b61010a6101ae366004610fad565b61083f565b600254610146906001600160a01b031681565b600080546101d390610fd9565b80601f01602080910402602001604051908101604052809291908181526020018280546101ff90610fd9565b801561024c5780601f106102215761010080835404028352916020019161024c565b820191906000526020600020905b81548152906001019060200180831161022f57829003601f168201915b505050505081565b600660009054906101000a90046001600160a01b03166001600160a01b031663853bab716040518163ffffffff1660e01b81526004016020604051808303816000875af11580156102a9573d6000803e3d6000fd5b505050506040513d601f19601f820116820180604052508101906102cd919061102c565b6001600160a01b0316336001600160a01b0316146103325760405162461bcd60e51b815260206004820152601460248201527f534441697264726f703a204f6e6c79205649502e00000000000000000000000060448201526064015b60405180910390fd5b6000600554118015610348575060055460045410155b801561036d57506001600160a01b03811660009081526007602052604090205460ff16155b156103ec57600554600460008282546103869190611078565b90915550506002546005546103a6916001600160a01b0316908390610978565b806001600160a01b03167fd8138f8a3f377c5259ca548e70e4c2de94f129f5a11036a15b69513cba2b426a6005546040516103e391815260200190565b60405180910390a25b50565b6006546040516001600160a01b039091169063fffd02f39033906104189060009060200161108f565b6040516020818303038152906040526040518363ffffffff1660e01b8152600401610444929190611190565b6020604051808303816000875af1158015610463573d6000803e3d6000fd5b505050506040513d601f19601f8201168201806040525081019061048791906111b2565b503360009081526007602052604090205460ff16156104e85760405162461bcd60e51b815260206004820152601f60248201527f534441697264726f703a20596f7520616c726561647920636c61696d65642e006044820152606401610329565b60006005541180156104fe575060055460045410155b6105705760405162461bcd60e51b815260206004820152602a60248201527f534441697264726f703a2042616c616e6365206973206e6f7420656e6f75676860448201527f20746f20636c61696d2e000000000000000000000000000000000000000000006064820152608401610329565b33600090815260076020526040812080547fffffffffffffffffffffffffffffffffffffffffffffffffffffffffffffff0016600117905560055460048054919290916105be908490611078565b90915550506002546005546105de916001600160a01b0316903390610978565b60055460405190815233907fd8138f8a3f377c5259ca548e70e4c2de94f129f5a11036a15b69513cba2b426a9060200160405180910390a2565b600180546101d390610fd9565b6006546001600160a01b0316331461067f5760405162461bcd60e51b815260206004820152601860248201527f534441697264726f703a204f6e6c7920666163746f72792e00000000000000006044820152606401610329565b8351610692906000906020870190610d09565b5082516106a6906001906020860190610d09565b50600280546001600160a01b039384167fffffffffffffffffffffffff000000000000000000000000000000000000000091821617909155600380549290931691161790555050565b6003546001600160a01b031633146107495760405162461bcd60e51b815260206004820152601660248201527f534441697264726f703a204f6e6c79206f776e65722e000000000000000000006044820152606401610329565b6000821180156107595750600081115b6107cb5760405162461bcd60e51b815260206004820152603e60248201527f534441697264726f703a204465706f73697420616e6420636c61696d20616d6f60448201527f756e7473206d75737420626520626967676572207468616e207a65726f2e00006064820152608401610329565b6002546107e3906001600160a01b0316333085610a26565b81600460008282546107f591906111d4565b90915550506005819055604080518381526020810183905233917f73a19dd210f1a7f902193214c0ee91dd35ee5b4d920cba8d519eca65a7b488ca91015b60405180910390a25050565b6003546001600160a01b031633146108995760405162461bcd60e51b815260206004820152601660248201527f534441697264726f703a204f6e6c79206f776e65722e000000000000000000006044820152606401610329565b6000811161090f5760405162461bcd60e51b815260206004820152603460248201527f534441697264726f703a20576974686472617720616d6f756e74206d7573742060448201527f626520626967676572207468616e207a65726f2e0000000000000000000000006064820152608401610329565b80600460008282546109219190611078565b909155505060025461093d906001600160a01b03168383610978565b816001600160a01b03167f7084f5476618d8e60b11ef0d7d3f06914655adb8793e28ff7f018d4c76d505d58260405161083391815260200190565b6040516001600160a01b038316602482015260448101829052610a219084907fa9059cbb00000000000000000000000000000000000000000000000000000000906064015b60408051601f198184030181529190526020810180517bffffffffffffffffffffffffffffffffffffffffffffffffffffffff167fffffffff0000000000000000000000000000000000000000000000000000000090931692909217909152610a7d565b505050565b6040516001600160a01b0380851660248301528316604482015260648101829052610a779085907f23b872dd00000000000000000000000000000000000000000000000000000000906084016109bd565b50505050565b6000610ad2826040518060400160405280602081526020017f5361666545524332303a206c6f772d6c6576656c2063616c6c206661696c6564815250856001600160a01b0316610b629092919063ffffffff16565b805190915015610a215780806020019051810190610af091906111b2565b610a215760405162461bcd60e51b815260206004820152602a60248201527f5361666545524332303a204552433230206f7065726174696f6e20646964206e60448201527f6f742073756363656564000000000000000000000000000000000000000000006064820152608401610329565b6060610b718484600085610b79565b949350505050565b606082471015610bf15760405162461bcd60e51b815260206004820152602660248201527f416464726573733a20696e73756666696369656e742062616c616e636520666f60448201527f722063616c6c00000000000000000000000000000000000000000000000000006064820152608401610329565b600080866001600160a01b03168587604051610c0d91906111ec565b60006040518083038185875af1925050503d8060008114610c4a576040519150601f19603f3d011682016040523d82523d6000602084013e610c4f565b606091505b5091509150610c6087838387610c6b565b979650505050505050565b60608315610cda578251600003610cd3576001600160a01b0385163b610cd35760405162461bcd60e51b815260206004820152601d60248201527f416464726573733a2063616c6c20746f206e6f6e2d636f6e74726163740000006044820152606401610329565b5081610b71565b610b718383815115610cef5781518083602001fd5b8060405162461bcd60e51b81526004016103299190610dfa565b828054610d1590610fd9565b90600052602060002090601f016020900481019282610d375760008555610d7d565b82601f10610d5057805160ff1916838001178555610d7d565b82800160010185558215610d7d579182015b82811115610d7d578251825591602001919060010190610d62565b50610d89929150610d8d565b5090565b5b80821115610d895760008155600101610d8e565b60005b83811015610dbd578181015183820152602001610da5565b83811115610a775750506000910152565b60008151808452610de6816020860160208601610da2565b601f01601f19169290920160200192915050565b602081526000610e0d6020830184610dce565b9392505050565b6001600160a01b03811681146103ec57600080fd5b600060208284031215610e3b57600080fd5b8135610e0d81610e14565b7f4e487b7100000000000000000000000000000000000000000000000000000000600052604160045260246000fd5b600082601f830112610e8657600080fd5b813567ffffffffffffffff80821115610ea157610ea1610e46565b604051601f8301601f19908116603f01168101908282118183101715610ec957610ec9610e46565b81604052838152866020858801011115610ee257600080fd5b836020870160208301376000602085830101528094505050505092915050565b60008060008060808587031215610f1857600080fd5b843567ffffffffffffffff80821115610f3057600080fd5b610f3c88838901610e75565b95506020870135915080821115610f5257600080fd5b50610f5f87828801610e75565b9350506040850135610f7081610e14565b91506060850135610f8081610e14565b939692955090935050565b60008060408385031215610f9e57600080fd5b50508035926020909101359150565b60008060408385031215610fc057600080fd5b8235610fcb81610e14565b946020939093013593505050565b600181811c90821680610fed57607f821691505b602082108103611026577f4e487b7100000000000000000000000000000000000000000000000000000000600052602260045260246000fd5b50919050565b60006020828403121561103e57600080fd5b8151610e0d81610e14565b7f4e487b7100000000000000000000000000000000000000000000000000000000600052601160045260246000fd5b60008282101561108a5761108a611049565b500390565b7f61697264726f702e636c61696d2e00000000000000000000000000000000000081526000600e6000845481600182811c9150808316806110d157607f831692505b60208084108203611109577f4e487b710000000000000000000000000000000000000000000000000000000086526022600452602486fd5b81801561111d576001811461115057611181565b7fffffffffffffffffffffffffffffffffffffffffffffffffffffffffffffff008616888b015287858b01019650611181565b60008b81526020902060005b868110156111775781548c82018b015290850190830161115c565b505087858b010196505b50949998505050505050505050565b6001600160a01b0383168152604060208201526000610b716040830184610dce565b6000602082840312156111c457600080fd5b81518015158114610e0d57600080fd5b600082198211156111e7576111e7611049565b500190565b600082516111fe818460208701610da2565b919091019291505056fea2646970667358221220408e3d292e67a0b55b6348e0c672134af36e874c089c7981d60d7ac4774fbf8764736f6c634300080d0033416464726573733a206c6f772d6c6576656c2064656c65676174652063616c6c206661696c6564a2646970667358221220adacd0b11ff54f3a9c8036def55304d2f635607d94ae62caee93572d93368d6b64736f6c634300080d0033",
  "devdoc": {
    "kind": "dev",
    "methods": {
      "owner()": {
        "details": "Returns the address of the current owner."
      },
      "proxiableUUID()": {
        "details": "Implementation of the ERC1822 {proxiableUUID} function. This returns the storage slot used by the implementation. It is used to validate the implementation's compatibility when performing an upgrade. IMPORTANT: A proxy pointing at a proxiable contract should not be considered proxiable itself, because this risks bricking a proxy that upgrades to it, by delegating to itself until out of gas. Thus it is critical that this function revert if invoked through a proxy. This is guaranteed by the `notDelegated` modifier."
      },
      "renounceOwnership()": {
        "details": "Leaves the contract without owner. It will not be possible to call `onlyOwner` functions anymore. Can only be called by the current owner. NOTE: Renouncing ownership will leave the contract without an owner, thereby removing any functionality that is only available to the owner."
      },
      "transferOwnership(address)": {
        "details": "Transfers ownership of the contract to a new account (`newOwner`). Can only be called by the current owner."
      },
      "upgradeTo(address)": {
        "details": "Upgrade the implementation of the proxy to `newImplementation`. Calls {_authorizeUpgrade}. Emits an {Upgraded} event."
      },
      "upgradeToAndCall(address,bytes)": {
        "details": "Upgrade the implementation of the proxy to `newImplementation`, and subsequently execute the function call encoded in `data`. Calls {_authorizeUpgrade}. Emits an {Upgraded} event."
      }
    },
    "version": 1
  },
  "userdoc": {
    "kind": "user",
    "methods": {},
    "version": 1
  },
  "storageLayout": {
    "storage": [
      {
        "astId": 527,
        "contract": "contracts/SDFactory.sol:SDFactory",
        "label": "_initialized",
        "offset": 0,
        "slot": "0",
        "type": "t_uint8"
      },
      {
        "astId": 530,
        "contract": "contracts/SDFactory.sol:SDFactory",
        "label": "_initializing",
        "offset": 1,
        "slot": "0",
        "type": "t_bool"
      },
      {
        "astId": 2686,
        "contract": "contracts/SDFactory.sol:SDFactory",
        "label": "__gap",
        "offset": 0,
        "slot": "1",
        "type": "t_array(t_uint256)50_storage"
      },
      {
        "astId": 10,
        "contract": "contracts/SDFactory.sol:SDFactory",
        "label": "_owner",
        "offset": 0,
        "slot": "51",
        "type": "t_address"
      },
      {
        "astId": 130,
        "contract": "contracts/SDFactory.sol:SDFactory",
        "label": "__gap",
        "offset": 0,
        "slot": "52",
        "type": "t_array(t_uint256)49_storage"
      },
      {
        "astId": 509,
        "contract": "contracts/SDFactory.sol:SDFactory",
        "label": "__gap",
        "offset": 0,
        "slot": "101",
        "type": "t_array(t_uint256)50_storage"
      },
      {
        "astId": 824,
        "contract": "contracts/SDFactory.sol:SDFactory",
        "label": "__gap",
        "offset": 0,
        "slot": "151",
        "type": "t_array(t_uint256)50_storage"
      },
      {
        "astId": 8202,
        "contract": "contracts/SDFactory.sol:SDFactory",
        "label": "airdrops",
        "offset": 0,
        "slot": "201",
        "type": "t_array(t_address)dyn_storage"
      },
      {
        "astId": 8206,
        "contract": "contracts/SDFactory.sol:SDFactory",
        "label": "getAirdrop",
        "offset": 0,
        "slot": "202",
        "type": "t_mapping(t_string_memory_ptr,t_address)"
      },
      {
        "astId": 8210,
        "contract": "contracts/SDFactory.sol:SDFactory",
        "label": "getIdentifier",
        "offset": 0,
        "slot": "203",
        "type": "t_mapping(t_string_memory_ptr,t_address)"
      },
      {
        "astId": 8212,
        "contract": "contracts/SDFactory.sol:SDFactory",
        "label": "vip",
        "offset": 0,
        "slot": "204",
        "type": "t_address"
      }
    ],
    "types": {
      "t_address": {
        "encoding": "inplace",
        "label": "address",
        "numberOfBytes": "20"
      },
      "t_array(t_address)dyn_storage": {
        "base": "t_address",
        "encoding": "dynamic_array",
        "label": "address[]",
        "numberOfBytes": "32"
      },
      "t_array(t_uint256)49_storage": {
        "base": "t_uint256",
        "encoding": "inplace",
        "label": "uint256[49]",
        "numberOfBytes": "1568"
      },
      "t_array(t_uint256)50_storage": {
        "base": "t_uint256",
        "encoding": "inplace",
        "label": "uint256[50]",
        "numberOfBytes": "1600"
      },
      "t_bool": {
        "encoding": "inplace",
        "label": "bool",
        "numberOfBytes": "1"
      },
      "t_mapping(t_string_memory_ptr,t_address)": {
        "encoding": "mapping",
        "key": "t_string_memory_ptr",
        "label": "mapping(string => address)",
        "numberOfBytes": "32",
        "value": "t_address"
      },
      "t_string_memory_ptr": {
        "encoding": "bytes",
        "label": "string",
        "numberOfBytes": "32"
      },
      "t_uint256": {
        "encoding": "inplace",
        "label": "uint256",
        "numberOfBytes": "32"
      },
      "t_uint8": {
        "encoding": "inplace",
        "label": "uint8",
        "numberOfBytes": "1"
      }
    }
  }
}